:020000040000FA
:100000000C9462000C948A000C948A000C948A0070
:100010000C948A000C948A000C948A000C948A0038
:100020000C948A000C948A000C948A000C948A0028
:100030000C948A000C948A000C948A000C948A0018
:100040000C9448020C948A000C94B8020C9492020E
:100050000C948A000C948A000C948A000C948A00F8
:100060000C948A000C948A000000000025002800EF
:100070002B0000000000240027002A0000000000E0
:1000800023002600290004040404040404040202DA
:100090000202020203030303030301020408102007
:1000A0004080010204081020010204081020000012
:1000B0000008000201000003040700000000000027
:1000C0000000220611241FBECFEFD8E0DEBFCDBF57
:1000D00011E0A0E0B1E0E4EDF4E102C005900D9282
:1000E000A032B107D9F721E0A0E2B1E001C01D9232
:1000F000AC3FB207E1F710E0C2E6D0E004C02197C0
:10010000FE010E947D07C136D107C9F70E94EA02AD
:100110000C94680A0C940000E6EBF0E08491E2EAAB
:10012000F0E09491EEE8F0E0E491EE23C1F1882351
:1001300039F08330E9F090F4813001F1823011F12F
:10014000F0E0EE0FFF1FE458FF4FA591B491EC9142
:10015000E92381E090E029F580E008958730A9F057
:100160008830C9F0843061F7809180008F7D03C0B2
:10017000809180008F7780938000E2CF84B58F7765
:1001800084BDDECF84B58F7DFBCF8091B0008F77AB
:100190008093B000D5CF8091B0008F7DF9CF80E003
:1001A00090E008958E50806480937C0080917A0066
:1001B000806480937A0080917A0086FDFCCF8091E4
:1001C00078009091790008953FB7F8948091F801F4
:1001D0009091F901A091FA01B091FB0126B5A89B7D
:1001E00005C02F3F19F00196A11DB11D3FBFBA2FC9
:1001F000A92F982F8827BC01CD01620F711D811D89
:10020000911D42E0660F771F881F991F4A95D1F70D
:1002100008958F929F92AF92BF92CF92DF92EF920A
:10022000FF924B015C010E94E4006B017C010E9483
:10023000E4006C197D098E099F09683E73408105B1
:100240009105A8F321E0821A9108A108B10888EE6F
:10025000C80E83E0D81EE11CF11C81149104A10496
:10026000B10429F7FF90EF90DF90CF90BF90AF904F
:100270009F908F900895AF92BF92CF92DF92EF92AE
:10028000FF920F931F93CF93DF936C017B018B0140
:10029000040F151FEB015E01AE18BF08C017D10790
:1002A00059F06991D601ED91FC910190F081E02D1A
:1002B000C6010995892B79F7C501DF91CF911F916F
:1002C0000F91FF90EF90DF90CF90BF90AF90089587
:1002D000FC01538D448D252F30E0842F90E0821B4C
:1002E000930B541710F0CF96089501970895FC01D1
:1002F000918D828D981761F0A28DAE0FBF2FB11D29
:100300005D968C91928D9F5F9F73928F90E0089580
:100310008FEF9FEF0895FC01918D828D981731F03A
:10032000828DE80FF11D858D90E008958FEF9FEF8E
:100330000895FC01918D228D892F90E0805C9F4F64
:10034000821B91098F73992708958EE491E00E9492
:10035000990121E0892B09F420E0822F089580E0A3
:1003600090E0892B29F00E94A50181110C940000D6
:100370000895FC01A48DA80FB92FB11DA35ABF4F3A
:100380002C91848D90E001968F739927848FA68994
:10039000B7892C93A089B1898C91837080648C93E8
:1003A000938D848D981306C00288F389E02D808197
:1003B0008F7D80830895EF92FF920F931F93CF93C9
:1003C000DF93EC0181E0888F9B8D8C8D98131AC090
:1003D000E889F989808185FF15C09FB7F894EE8977
:1003E000FF896083E889F9898081837080648083D4
:1003F0009FBF81E090E0DF91CF911F910F91FF901F
:10040000EF900895F62E0B8D10E00F5F1F4F0F73C6
:100410001127E02E8C8D8E110CC00FB607FCFACF81
:10042000E889F989808185FFF5CFCE010E94B90165
:10043000F1CFEB8DEC0FFD2FF11DE35AFF4FF08252
:100440009FB7F8940B8FEA89FB8980818062CFCFB8
:10045000CF93DF93EC01888D8823B9F0AA89BB89FB
:10046000E889F9898C9185FD03C0808186FD0DC0E6
:100470000FB607FCF7CF8C9185FFF2CF808185FF07
:10048000EDCFCE010E94B901E9CFDF91CF91089560
:100490001F920F920FB60F9211242F933F938F93B9
:1004A0009F93AF93BF938091F4019091F501A09138
:1004B000F601B091F7013091F30123E0230F2D37BE
:1004C00058F50196A11DB11D2093F3018093F4010D
:1004D0009093F501A093F601B093F7018091F80194
:1004E0009091F901A091FA01B091FB010196A11D33
:1004F000B11D8093F8019093F901A093FA01B09394
:10050000FB01BF91AF919F918F913F912F910F90E0
:100510000FBE0F901F90189526E8230F0296A11D7D
:10052000B11DD2CF1F920F920FB60F9211242F93AD
:100530003F934F935F936F937F938F939F93AF936B
:10054000BF93EF93FF938EE491E00E94B901FF9176
:10055000EF91BF91AF919F918F917F916F915F913B
:100560004F913F912F910F900FBE0F901F901895B4
:100570001F920F920FB60F9211242F938F939F9378
:10058000EF93FF93E0915E01F0915F018081E09134
:100590006401F091650182FD1BC09081809167012B
:1005A0008F5F8F7320916801821741F0E09167019E
:1005B000F0E0E25BFE4F958F80936701FF91EF9132
:1005C0009F918F912F910F900FBE0F901F901895B4
:1005D0008081F4CFCF93DF93CDB7DEB766970FB6A8
:1005E000F894DEBF0FBECDBF789484B5826084BD21
:1005F00084B5816084BD85B5826085BD85B5816027
:1006000085BD80916E00816080936E0010928100A4
:10061000809181008260809381008091810081605F
:100620008093810080918000816080938000809120
:10063000B10084608093B1008091B00081608093AC
:10064000B00080917A00846080937A0080917A0073
:10065000826080937A0080917A00816080937A0032
:1006600080917A00806880937A001092C100E091B6
:100670005E01F0915F0182E08083E0915A01F09188
:100680005B011082E0915C01F0915D018FEC808351
:1006900010926601E0916201F091630186E080832F
:1006A000E0916001F0916101808180618083E0913F
:1006B0006001F0916101808188608083E091600138
:1006C000F0916101808180688083E0916001F09108
:1006D000610180818F7D8083E2EAF0E02491EEE881
:1006E000F0E084918823C9F090E0880F991FFC0105
:1006F000EE58FF4FA591B491FC01E859FF4F859149
:1007000094914FB7F8945C91322F309535233C93F8
:10071000DC01EC912E2B2C934FBF68EC70E080E055
:1007200090E00E9409018FE00E94D200BC01990F65
:10073000880B990B611571058105910511F00E94D7
:10074000EA060E949B0628EF30E040E050E00E945D
:10075000F3066E5F7F4F8F4F9F4F6093F0010BEF5B
:1007600010E0FE0131963F01812C84E0982EA12CEF
:10077000B12C8091F1019091F2018130910509F441
:100780005AC0C0F08230910509F4B3C0039709F450
:1007900055C165E070E080E090E00E940901E0E072
:1007A000F0E0EF2B31F30E94A501882311F30E94A2
:1007B0000000DFCF4091F00126E030E0E1E0F0E022
:1007C0004423E9F0E42EF12C40FF0BC0E29FC0016E
:1007D000E39F900DF29F900D1124B8010E946207D3
:1007E000FC01F594E7944E2D229FC001239F900DAC
:1007F000900D1124B8010E9462079C01E1CFE093A3
:10080000EF0141E050E05093F2014093F1012FB726
:10081000F8948091F4019091F501A091F601B091C6
:10082000F7012FBF8093EB019093EC01A093ED01B2
:10083000B093EE01AECF2FB7F8948091F401909170
:10084000F501A091F601B091F7012FBF4091EB01A6
:100850005091EC016091ED017091EE01841B950BBC
:10086000A60BB70B8C3D9540A105B105F0F061EDED
:100870008EE491E00E94DB016091EF018EE491E053
:100880000E94DB012FB7F8948091F4019091F5015B
:10089000A091F601B091F7012FBF8093EB019093E7
:1008A000EC01A093ED01B093EE018EE491E00E9483
:1008B000990102970CF46DCF8EE491E00E948B01B8
:1008C000823D910589F48EE491E00E9477018EE4E7
:1008D00091E00E94770180934D0182E090E0909337
:1008E000F2018093F10155CF8EE491E00E947701EF
:1008F00050CF4091F00120914D0181E02B3F08F451
:1009000080E095E0899F200D112430E0E1E0F0E0E7
:100910004423E9F0E42EF12C40FF0BC0E29FC0011C
:10092000E39F900DF29F900D1124B8010E94620781
:10093000FC01F594E7944E2D229FC001239F900D5A
:10094000900D1124B8010E9462079C01E1CF9E2FF7
:100950008827E82BF92BCF01AAEA8A279A279A83BE
:100960008983CF01B5E58B279B279C838B83CF01A0
:100970002FE0822792279E838D83F0932101E093BD
:100980002001A0E2B1E030E020E073E0F72E822FFA
:100990006F2D0E945607E92FF0E08D919D91EE0F8B
:1009A000FF1FE60DF71D4181742F770F5081652FD2
:1009B000661F6627661F272E262A550F441F4427C9
:1009C000441F352E342AA101480F591F42275327AF
:1009D00051834083782F7295769576957370692F41
:1009E000660F660F572E562A929596959695937098
:1009F000880F880F492E482A4425552511965C9367
:100A00004E932F5F3F4F2531310509F664EF71E0BA
:100A100080E090E00E9409010E948C0021E0892B77
:100A200009F420E02093000181E080934C0143E031
:100A300050E05093F2014093F101ABCE80914C0114
:100A4000882309F4A6CE0E948C0051E05E870097AF
:100A500009F41E8620910001222309F4EFC0892B9E
:100A600009F0ECC062E370E080E090E00E940901D0
:100A70000E948C00892B09F0E1C08EE00E94D20018
:100A800024EF31E0DC010E947607A50194010E9469
:100A9000F3063F932F9387E191E09F938F931F92EB
:100AA00089E08F937F926F920E9483076AEA8EE4B7
:100AB00091E00E94DB012A818981082E000C990BAC
:100AC000FC01F22B9F014C818B81082E000C990BAD
:100AD000942B40E2C42E41E0D42E0FB6F894DEBF32
:100AE0000FBECDBF7601D7014D915D917D01732F72
:100AF000770F622F661F6627661F762B7F87622F10
:100B0000660F232F221F2227221F622B688B2F851F
:100B10003889280F391F24273527582F5295569585
:100B200056955370492F440F440F542B5A8B492F1D
:100B30004295469546954370982F990F990F492BEA
:100B4000498B89899A8982279327ECE4F1E0EA1797
:100B5000FB0749F63D872C879B878A8742E050E058
:100B6000BE01645F7F4F8EE491E00E943B0142E052
:100B700050E0BE01665F7F4F8EE491E00E943B0132
:100B80002E818D81082E000C990BAC01522B9A01FD
:100B900048858F81082E000C990B942BD6014D911E
:100BA0005D916D01732F770F622F661F6627661F99
:100BB000762B7B8B622F660F232F221F2227221F6B
:100BC000622B6C8B2B893C89280F391F24273527F2
:100BD000582F5295569556955370492F440F440FF0
:100BE000542B5E8B492F4295469546954370982F1E
:100BF000990F990F492B4D8B8D899E8982279327B9
:100C0000EA16FB0659F63D872C879B878A8742E0C8
:100C100050E0BE01645F7F4F8EE491E00E943B0193
:100C200042E050E0BE01665F7F4F8EE491E00E949B
:100C30003B0165E58EE491E00E94DB01BE85B09347
:100C40000001A7CDEEE4F1E01382128288EE93E07A
:100C5000A0E0B0E084839583A683B78389E091E028
:100C60009183808385EC90E09587848784EC90E085
:100C70009787868780EC90E0918B808B81EC90E069
:100C8000938B828B82EC90E0958B848B86EC90E04A
:100C9000978B868B118E128E138E148E08958F92E1
:100CA0009F92AF92BF92CF92DF92EF92FF92CF933B
:100CB000DF93EC01688179818A819B8161157105DF
:100CC0008105910521F464E279ED8BE597E02DE152
:100CD00033EF41E050E00E94F30649015A019B01C5
:100CE000AC01A7EAB1E40E9412076B017C01ACEEF3
:100CF000B4EFA50194010E942007C60ED71EE81E7E
:100D0000F91EF7FE06C081E0C81AD108E10880E8A4
:100D1000F80AC882D982EA82FB82C701B6019F77AE
:100D2000DF91CF91FF90EF90DF90CF90BF90AF9089
:100D30009F908F9008958F929F92AF92BF92CF9283
:100D4000DF92EF92FF926091010170910201809118
:100D5000030190910401611571058105910521F44C
:100D600064E279ED8BE597E02DE133EF41E050E06F
:100D70000E94F30649015A019B01AC01A7EAB1E4C4
:100D80000E9412076B017C01ACEEB4EFA501940147
:100D90000E942007C60ED71EE81EF91EF7FE06C0E9
:100DA00081E0C81AD108E10880E8F80AC092010180
:100DB000D0920201E0920301F0920401C701B60152
:100DC0009F77FF90EF90DF90CF90BF90AF909F9074
:100DD0008F90089560930101709302018093030145
:100DE000909304010895052E97FB1EF400940E9431
:100DF0000A0757FD07D00E94250707FC03D04EF4D1
:100E00000C940A0750954095309521953F4F4F4FD0
:100E10005F4F089590958095709561957F4F8F4FA6
:100E20009F4F08950E944707A59F900DB49F900D76
:100E3000A49F800D911D11240895B7FF0C941207F3
:100E40000E941207821B930B0895A1E21A2EAA1B7F
:100E5000BB1BFD010DC0AA1FBB1FEE1FFF1FA2176A
:100E6000B307E407F50720F0A21BB30BE40BF50B67
:100E7000661F771F881F991F1A9469F760957095F0
:100E8000809590959B01AC01BD01CF010895A29F73
:100E9000B001B39FC001A39F700D811D1124911D4E
:100EA000B29F700D811D1124911D0895991B79E049
:100EB00004C0991F961708F0961B881F7A95C9F7EA
:100EC00080950895AA1BBB1B51E107C0AA1FBB1F39
:100ED000A617B70710F0A61BB70B881F991F5A95C6
:100EE000A9F780959095BC01CD0108950E94470710
:100EF000B7FF0895821B930B0895EE0FFF1F059017
:100F0000F491E02D0994AEE0B0E0E9E8F7E00C944C
:100F10003F0A0D891E898F89988D26E02C831A83BC
:100F2000098397FF02C080E090E801979E838D833C
:100F3000AE01455E5F4F698D7A8DCE0101960E94AC
:100F4000B3074D815E8157FD0AC02F813885421756
:100F500053070CF49A01020F131FF80110822E960A
:100F6000E4E00C945B0AABE0B0E0E9EBF7E00C9452
:100F7000310A7C013B018A01FC01178216828381C0
:100F800081FFC8C1CE0101965C01F7019381F30195
:100F900093FD859193FF81913F01882309F453C10B
:100FA000853239F493FD859193FF81913F0185321C
:100FB00029F4B70190E00E94A309E7CF912C212CDE
:100FC000312CFFE1F31538F08B3211F190F48032BF
:100FD00009F1833229F137FC3CC020ED280F2A307B
:100FE00050F536FE20C08AE0989E200D1124922EE6
:100FF00006C08D3291F0803371F7689430F8F301B8
:1010000093FD859193FF81913F018111DACF21C03A
:10101000689431F8689432F8F2CF689433F8EFCFDF
:10102000689434F8ECCFEAE02E9E200D1124222E95
:10103000689435F8E4CF8E3229F436FC04C1689404
:1010400036F8DDCF8C3619F4689437F8D8CF883667
:10105000B1F2982F9F7D95549330E0F08336A1F143
:101060008337C1F1833509F063C02801F2E04F0EE8
:10107000511CF801C080D180692D70E036FC02C09F
:101080006FEF7FEFC6010E948D094C01689437F81D
:1010900082010AC00C5F1F4FFFE3F9838824839409
:1010A000912C6501E89437F833FE2DC0522C811441
:1010B000910471F5552009F468CFB70180E290E002
:1010C0000E94A3095A94F6CFF801808189830E5FAC
:1010D0001F4FE4CF2801F2E04F0E511CF801C080F1
:1010E000D180692D70E036FC02C06FEF7FEFC60142
:1010F0000E9498094C018201D5CFB70180E290E0AF
:101100000E94A3092A942814190409F0B0F7CECF3D
:10111000F60137FC859137FE81916F01B70190E0B0
:101120000E94A30951105A94F1E08F1A9108BFCF81
:10113000843619F0893609F077C0F80137FE6BC0A4
:1011400060817181828193810C5F1F4FF32DFF7647
:101150003F2E97FF09C090958095709561957F4FC0
:101160008F4F9F4F689437F82AE030E0A5010E9426
:10117000D309C82ECA188C2C432C36FE0CC0E89418
:1011800040F8C91440F434FE05C032FC03C0F32D0E
:10119000FE7E4F2E892C44FE95C0FE01EC0DF11D04
:1011A0008081803309F087C0242D297E422E842D32
:1011B0008870582E43FC95C040FE8FC09C2C821432
:1011C00018F42C0C922C981844FE91C0B70180E3BF
:1011D00090E00E94A30942FE09C088E790E041FE2A
:1011E00002C088E590E0B7010E94A309C91408F481
:1011F0008AC0CA94D12C9FEFC91AD90ACA0CDB1C29
:10120000F60182916F01B70190E00E94A309AC142E
:10121000BD04B1F74FCF60817181072E000C880BA0
:10122000990B0E5F1F4F92CFD32CE894D4F82AE08D
:1012300030E0853739F1232D297FD22E8F3601F109
:1012400048F48835A9F0F701868197812B96E2E171
:101250000C944D0A803749F08837A9F7D4FE02C0B4
:101260006894D2F820E130E00DC06894D4F8F6CF4D
:1012700034FE03C0822F8660D82E20E132E002C007
:1012800028E030E0F801D7FE0FC0608171818281D3
:1012900093810C5F1F4FA5010E94D309C82ECA1865
:1012A0003D2CE89437F867CF6081718190E080E051
:1012B0000E5F1F4FF0CF42FC02C0839478CF83941F
:1012C000839475CF842D867809F471CFF6CFB7015A
:1012D00080E290E00E94A30983948214C0F3512C11
:1012E00073CF522C5818821408F46ECFF8CF842D87
:1012F000867809F47BCF8BE241FE80E247FC8DE2E9
:10130000B70190E071CFB70180E390E00E94A3099C
:101310009A946CCF8FEF9FEF99CFFC0105906150AD
:1013200070400110D8F7809590958E0F9F1F0895FB
:10133000FC016150704001900110D8F780959095A4
:101340008E0F9F1F08950F931F93CF93DF93182F36
:10135000092FEB018B8181FD09C01FEF0FEF812F5A
:10136000902FDF91CF911F910F91089582FF14C0AC
:101370002E813F818C819D81281739073CF4E881BB
:10138000F981CF0101969983888310838E819F8193
:1013900001969F838E83E3CFE885F985812F099598
:1013A000892BA1F3DACFFA01AA27283051F1203195
:1013B00081F1E8946F936E7F6E5F7F4F8F4F9F4FE9
:1013C000AF4FB1E03ED0B4E03CD0670F781F891F2B
:1013D0009A1FA11D680F791F8A1F911DA11D6A0FF9
:1013E000711D811D911DA11D20D009F468943F91AC
:1013F0002AE0269F11243019305D3193DEF6CF01AB
:101400000895462F4770405D4193B3E00FD0C9F770
:10141000F6CF462F4F70405D4A3318F0495D31FDDD
:101420004052419302D0A9F7EACFB4E0A695979530
:10143000879577956795BA95C9F700976105710506
:1014400008959B01AC010A2E069457954795379550
:101450002795BA95C9F7620F731F841F951FA01DAA
:1014600008952F923F924F925F926F927F928F9248
:101470009F92AF92BF92CF92DF92EF92FF920F9323
:101480001F93CF93DF93CDB7DEB7CA1BDB0B0FB62D
:10149000F894DEBF0FBECDBF09942A8839884888EA
:1014A0005F846E847D848C849B84AA84B984C88480
:1014B000DF80EE80FD800C811B81AA81B981CE0F77
:1014C000D11D0FB6F894DEBF0FBECDBFED0108955C
:1014D000F894FFCF010100000000000000DB013B99
:1014E0000168012802990177018B01544D503A257A
:0414F0006443000051
:107E0000112484B714BE81FFF0D085E080938100F7
:107E100082E08093C00088E18093C10086E0809377
:107E2000C20080E18093C4008EE0C9D0259A86E02C
:107E300020E33CEF91E0309385002093840096BBD3
:107E4000B09BFECF1D9AA8958150A9F7CC24DD24C4
:107E500088248394B5E0AB2EA1E19A2EF3E0BF2EE7
:107E6000A2D0813461F49FD0082FAFD0023811F036
:107E7000013811F484E001C083E08DD089C08234E0
:107E800011F484E103C0853419F485E0A6D080C0E4
:107E9000853579F488D0E82EFF2485D0082F10E0AE
:107EA000102F00270E291F29000F111F8ED06801E7
:107EB0006FC0863521F484E090D080E0DECF843638
:107EC00009F040C070D06FD0082F6DD080E0C81688
:107ED00080E7D80618F4F601B7BEE895C0E0D1E017
:107EE00062D089930C17E1F7F0E0CF16F0E7DF06D8
:107EF00018F0F601B7BEE89568D007B600FCFDCFD4
:107F0000A601A0E0B1E02C9130E011968C91119780
:107F100090E0982F8827822B932B1296FA010C0160
:107F200087BEE89511244E5F5F4FF1E0A038BF0790
:107F300051F7F601A7BEE89507B600FCFDCF97BE46
:107F4000E89526C08437B1F42ED02DD0F82E2BD052
:107F50003CD0F601EF2C8F010F5F1F4F84911BD097
:107F6000EA94F801C1F70894C11CD11CFA94CF0C13
:107F7000D11C0EC0853739F428D08EE10CD085E9AC
:107F80000AD08FE07ACF813511F488E018D01DD067
:107F900080E101D065CF982F8091C00085FFFCCF94
:107FA0009093C60008958091C00087FFFCCF809118
:107FB000C00084FD01C0A8958091C6000895E0E648
:107FC000F0E098E1908380830895EDDF803219F02E
:107FD00088E0F5DFFFCF84E1DECF1F93182FE3DFCA
:107FE0001150E9F7F2DF1F91089580E0E8DFEE27F6
:047FF000FF270994CA
:027FFE00040479
:00000001FF
