:020000040000FA
:100000000C9463000C948B000C948B000C9486056C
:100010000C9486050C9486050C948B000C948B0034
:100020000C948B000C948B000C948B000C948B0024
:100030000C948B000C948B000C948B000C948B0014
:100040000C94E4040C948B000C9454050C942E0531
:100050000C948B000C948B000C948B000C948B00F4
:100060000C948B000C948B000000000024002700EF
:100070002A0000000008000201000003040700003D
:1000800000000000000000000000230026002900FE
:1000900000000000250028002B00040404040404D0
:1000A0000404020202020202030303030303010227
:1000B00004081020408001020408102001020408F6
:1000C0001020FE05A50811241FBECFEFD8E0DEBF2B
:1000D000CDBF11E0A0E0B1E0ECEEF1E102C005908F
:1000E0000D92A239B107D9F722E0A2E9B1E001C02F
:1000F0001D92A13CB207E1F710E0C2E6D0E004C0D7
:100100002197FE010E94E308C136D107C9F70E947A
:10011000D4060C94E9080C94000090E0FC01EE5821
:10012000FF4F2491FC01E255FF4F3491FC01E6564C
:10013000FF4FE491EE23C9F0222339F0233001F17F
:10014000A8F4213019F1223029F1F0E0EE0FFF1F61
:10015000E057FF4FA591B4918FB7F894EC916111DE
:1001600026C030953E233C938FBF08952730A9F0D9
:100170002830C9F0243049F7809180008F7D03C07A
:10018000809180008F7780938000DFCF84B58F7758
:1001900084BDDBCF84B58F7DFBCF8091B0008F779E
:1001A0008093B000D2CF8091B0008F7DF9CF3E2BED
:1001B000DACFCF93DF9390E0FC01E255FF4F24911B
:1001C00086569F4FFC0184918823D1F090E0880FE0
:1001D000991FFC01E859FF4FA591B491FC01E0572C
:1001E000FF4FC591D49161110EC09FB7F8948C91C7
:1001F000E22FE0958E238C932881E223E8839FBF32
:10020000DF91CF9108958FB7F894EC91E22BEC93A6
:100210008FBFF6CF3FB7F8948091E9019091EA0142
:10022000A091EB01B091EC0126B5A89B05C02F3F32
:1002300019F00196A11DB11D3FBFBA2FA92F982F0C
:100240008827BC01CD01620F711D811D911D42E007
:10025000660F771F881F991F4A95D1F70895AF92AF
:10026000BF92CF92DF92EF92FF920F931F93CF93A3
:10027000DF936C017B018B01040F151FEB015E0105
:10028000AE18BF08C017D10759F06991D601ED919A
:10029000FC910190F081E02DC6010995892B79F739
:1002A000C501DF91CF911F910F91FF90EF90DF90EB
:1002B000CF90BF90AF900895FC01538D448D252FB2
:1002C00030E0842F90E0821B930B541710F0CF96F0
:1002D000089501970895FC01918D828D981761F022
:1002E000A28DAE0FBF2FB11D5D968C91928D9F5F39
:1002F0009F73928F90E008958FEF9FEF0895FC0118
:10030000918D828D981731F0828DE80FF11D858DCA
:1003100090E008958FEF9FEF0895FC01918D228D5D
:10032000892F90E0805C9F4F821B91098F739927E2
:1003300008958DEE91E00E948D0121E0892B09F452
:1003400020E0822F089580E090E0892B29F00E9420
:10035000990181110C9400000895FC01A48DA80F4F
:10036000B92FB11DA35ABF4F2C91848D90E00196F7
:100370008F739927848FA689B7892C93A089B18917
:100380008C91837080648C93938D848D981306C0B8
:100390000288F389E02D80818F7D80830895EF921C
:1003A000FF920F931F93CF93DF93EC0181E0888F2F
:1003B0009B8D8C8D98131AC0E889F989808185FFFF
:1003C00015C09FB7F894EE89FF896083E889F989A1
:1003D00080818370806480839FBF81E090E0DF91A3
:1003E000CF911F910F91FF90EF900895F62E0B8DF6
:1003F00010E00F5F1F4F0F731127E02E8C8D8E11B1
:100400000CC00FB607FCFACFE889F989808185FF17
:10041000F5CFCE010E94AD01F1CFEB8DEC0FFD2F9A
:10042000F11DE35AFF4FF0829FB7F8940B8FEA89D2
:10043000FB8980818062CFCFCF93DF93EC01888DE1
:100440008823B9F0AA89BB89E889F9898C9185FD4F
:1004500003C0808186FD0DC00FB607FCF7CF8C91DD
:1004600085FFF2CF808185FFEDCFCE010E94AD01E7
:10047000E9CFDF91CF9108952091D4013091D5013A
:100480002817390771F49091D2018091D301981700
:1004900041F0E091D201F0E0EE56FE4F808190E015
:1004A00008958FEF9FEF08950895EF92FF920F93B5
:1004B0001F93CF93DF93DC015C96ED90FC905D97EA
:1004C000E114F10479F481E090E013969C938E930B
:1004D000129790E080E0DF91CF911F910F91FF90F4
:1004E000EF9008955196ED91FC91529750968C9112
:1004F0005097982F90950FB75E962C915E97122F7C
:10050000127021FD6095F8942081112319F1282B98
:100510002083E7012197F1F728E0462F50E0308152
:1005200060FF1AC0382B3083E7012197F1F7BA0139
:1005300075956795215089F7112381F08081892372
:1005400080830FBF5C968D919C910197F1F781E0BC
:1005500090E0C1CF2923DCCF3923E5CF9081892BCF
:10056000EFCF2091D4013091D5012817390761F4DC
:100570008091D3012091D20190E0805C9F4F821B3B
:1005800091098F739927089590E080E00895209154
:10059000D4013091D50128173907B9F49091D201CF
:1005A0008091D301981789F0E091D201F0E0EE56E6
:1005B000FE4F80812091D20130E02F5F3F4F2F739B
:1005C00033272093D20190E008958FEF9FEF089595
:1005D000089590E080E00895CF93DF93EC0160E010
:1005E0008E810E948D0061E08E810E948D0060E00E
:1005F0008E810E948D008BE891E00197F1F7DF91E9
:10060000CF910895CF92DF92EF92FF920F931F93B5
:10061000CF93DF936C017C0187E0E80EF11CD0E002
:10062000C0E0062F10E0B8010C2E02C0759567954A
:100630000A94E2F76170F70181917F010E948D00B9
:100640002196C430D10579F7C601DF91CF911F9172
:100650000F91FF90EF90DF90CF900C94EC02CF922F
:10066000DF92EF92FF920F931F93CF93DF93EC01F2
:10067000F62E642F8C810E948D008D818F3F19F0A2
:1006800060E00E948D000F2D10E08F8584FF25C053
:100690006E0187E0C80ED11CF12CE12CB8010E2CA4
:1006A00002C0759567950A94E2F76170F601819131
:1006B0006F010E948D00FFEFEF1AFF0A88E0E81635
:1006C000F10461F7CE01DF91CF911F910F91FF905F
:1006D000EF90DF90CF900C94EC02B80184E0759518
:1006E00067958A95E1F7CE010E9402036F2DCE0136
:1006F000DF91CF911F910F91FF90EF90DF90CF90FE
:100700000C94020340E0682F8AE892E00C942F03D7
:1007100081E00E9482038BE39FE10197F1F7089546
:10072000CF93DF93823029F490919902986090934F
:10073000990280939D0210929E0280E480939F0212
:1007400080E18093A00280E58093A10261E0809126
:100750008E020E94D90080918F028F3F19F061E0D4
:100760000E94D90061E0809190020E94D900CAE8FD
:10077000D2E09E012A5832408091990284FD0BC03C
:1007800084E090E021962817390744F461E08E81D7
:100790000E94D900EECF88E090E0F4CF8BE39DE09B
:1007A0000197F1F760E080918E020E948D0060E079
:1007B000809190020E948D0080918F028F3F19F0EE
:1007C00060E00E948D008091990284FD34C063E056
:1007D0008AE892E00E940203CBE4D6E4CE010197BE
:1007E000F1F763E08AE892E00E9402032197F1F7B3
:1007F00063E08AE892E00E94020383E592E00197B9
:10080000F1F762E08AE892E00E9402038091990287
:1008100080620E94820384E080939A028CE00E94AE
:1008200082030E94880382E080939B0286E0DF912E
:10083000CF910C94820380620E9482038BE496E441
:100840000197F1F78091990280620E94820383E50B
:1008500092E00197F1F78091990280620E948203F1
:10086000D5CF90919D02691710F06FEF690FE62FB9
:10087000F0E0E657FD4F9489890F80680C9482035D
:1008800041E00E942F0381E090E008958F929F92B3
:10089000AF92BF920F931F93CF93DF93CDB7DEB785
:1008A000A1970FB6F894DEBF0FBECDBF19A242309C
:1008B00008F44AE08E010F5D1F4F842E912CB12C5D
:1008C000A12CA50194010E94C108E62FB901CA011B
:1008D000EA3044F5E05DD801EE938D01232B242B03
:1008E000252B79F790E080E0109769F0FD010190E9
:1008F0000020E9F73197AF014A1B5B0BBD018AE885
:1009000092E00E942F01A1960FB6F894DEBF0FBEB1
:10091000CDBFDF91CF911F910F91BF90AF909F906E
:100920008F900895E95CD7CFFC0101900020E9F792
:100930003197AF01481B590BBC018AE892E00C9437
:100940002F010E94880380E391E00E94940480912B
:10095000E201882361F16091E30170E090E080E0C2
:100960004AE00E94460460E088E00E94310489E386
:1009700091E00E9494048091D6018823E9F060916F
:10098000D70170E090E080E04AE00E94460461E018
:1009900080E00E9431048091E201882391F08091EF
:1009A000D601882371F08FE391E00C94940486E3E0
:1009B00091E00E949404D7CF86E391E00E949404D2
:1009C000E6CF80E591E0F1CF1F920F920FB60F9224
:1009D00011242F933F938F939F93AF93BF93809155
:1009E000E5019091E601A091E701B091E801309115
:1009F000E40123E0230F2D3758F50196A11DB11D09
:100A00002093E4018093E5019093E601A093E70130
:100A1000B093E8018091E9019091EA01A091EB0186
:100A2000B091EC010196A11DB11D8093E901909355
:100A3000EA01A093EB01B093EC01BF91AF919F91BC
:100A40008F913F912F910F900FBE0F901F9018958F
:100A500026E8230F0296A11DB11DD2CF1F920F923F
:100A60000FB60F9211242F933F934F935F936F9381
:100A70007F938F939F93AF93BF93EF93FF938DEEED
:100A800091E00E94AD01FF91EF91BF91AF919F91D5
:100A90008F917F916F915F914F913F912F910F9027
:100AA0000FBE0F901F9018951F920F920FB60F92C6
:100AB00011242F938F939F93EF93FF93E091FD0168
:100AC000F091FE018081E0910302F091040282FD29
:100AD0001BC09081809106028F5F8F732091070267
:100AE000821741F0E0910602F0E0E351FE4F958F4E
:100AF00080930602FF91EF919F918F912F910F901C
:100B00000FBE0F901F9018958081F4CF1F920F9207
:100B10000FB60F9211242F933F934F935F936F93D0
:100B20007F938F939F93AF93BF93EF93FF93E09146
:100B3000D401F091D501309749F0A685B785858518
:100B4000968D91FF14C09C918923A1F4FF91EF91A0
:100B5000BF91AF919F918F917F916F915F914F91D5
:100B60003F912F910F900FBE0F901F9018959C9161
:100B7000892361F7A389B4899C918589809589230C
:100B80008C93868997890197F1F7608D718DA68581
:100B9000B785558538E020E0CB010197F1F7822F2A
:100BA00090E095958795282F4C91452309F0206872
:100BB000315091F7868D81FD20958091D30190E091
:100BC00001968F7399273091D201381799F0A0912F
:100BD000D301B0E0AE56BE4F2C938093D301828DEB
:100BE000938D0197F1F7A389B4898C919589892B0D
:100BF0008C93ACCF868D8160868FF1CF1092F001FF
:100C00001092EF0188EE93E0A0E0B0E08093F10154
:100C10009093F201A093F301B093F40124E031E04A
:100C20003093EE012093ED0125EC30E03093FA0192
:100C30002093F90124EC30E03093FC012093FB0178
:100C400020EC30E03093FE012093FD0121EC30E0F8
:100C5000309300022093FF0122EC30E03093020237
:100C60002093010226EC30E030930402209303022B
:100C700010920602109207021092080210920902C6
:100C80001092A5021092A4028093A6029093A7024C
:100C9000A093A802B093A90282E291E09093A302EC
:100CA0008093A2021092B9021092B8021092BB0275
:100CB0001092BA021092BD021092BC021092BF02B2
:100CC0001092BE026091C0026E7F6D7F6093C00281
:100CD0006695617081E0682787E00E948D0061E081
:100CE00087E00E94D900E5EBF0E0E491E093B202E6
:100CF000E1EAF0E0E491F0E0EE0FFF1FE057FF4F74
:100D0000859194919093B4028093B30260E086E061
:100D10000E94D9008091C00281FD04C061E086E09C
:100D20000E948D0086E08093AE02E4EBF0E0E49157
:100D3000E093AF02E0EAF0E0E491F0E0EE0FFF1F95
:100D4000EA57FF4F859194919093B1028093B0023E
:100D500010928D0210928C0286E191E090938B02AA
:100D600080938A028CE080938E028FEF80938F02B3
:100D70008BE08093900285E08093910284E08093E1
:100D8000920283E08093930282E080939402109217
:100D90009502109296021092970210929802109269
:100DA000990281E00C949003789484B5826084BDAC
:100DB00084B5816084BD85B5826085BD85B581605F
:100DC00085BD80916E00816080936E0010928100DD
:100DD0008091810082608093810080918100816098
:100DE0008093810080918000816080938000809159
:100DF000B10084608093B1008091B00081608093E5
:100E0000B00080917A00846080937A0080917A00AB
:100E1000826080937A0080917A00816080937A006A
:100E200080917A00806880937A001092C100E091EE
:100E3000FD01F091FE0182E08083E091F901F091E3
:100E4000FA011082E091FB01F091FC018FEC8083AC
:100E500010920502E0910102F091020286E0808387
:100E6000E091FF01F0910002808180618083E09138
:100E7000FF01F0910002808188608083E091FF0192
:100E8000F0910002808180688083E091FF01F09101
:100E9000000280818F7D80831092BD021092BC027F
:100EA0001092BB021092BA021092B9021092B802CC
:100EB0008DE991E09093BF028093BE029091AE02C3
:100EC000963108F047C02DEB30E03093B902209303
:100ED000B8022BE931E03093BB022093BA022CE236
:100EE00031E03093BD022093BC022091680084E081
:100EF000983048F031E09E3008F430E081E001C0E5
:100F0000880F3A95EAF7822B809368002DE630E04F
:100F1000983050F02BE630E09E3030F02CE630E098
:100F2000963110F030E020E03093B6022093B50205
:100F3000292F30E0983008F0B9C081E001C0880F57
:100F40009A95EAF78093B7028091BE029091BF0212
:100F50000197F1F78091BC029091BD02892B49F174
:100F6000E091D401F091D50122E0E23AF20709F1D3
:100F7000309739F0A389B4899C918589809589231C
:100F80008C938091C0028E7F8093C0021092D30117
:100F90001092D20182EA92E09093D5018093D4011D
:100FA000E091B502F091B60280819091B702892B51
:100FB000808382E00E94900381E691E00E94940485
:100FC00061E080E00E94310481E791E00E94940496
:100FD0000E940A014B015C0198EEC92E93E0D92EC4
:100FE000E12CF12C0E940A01681979098A099B09F0
:100FF000683E734081059105A8F381E0C81AD108C5
:10100000E108F108E8EE8E0EE3E09E1EA11CB11C83
:10101000C114D104E104F10429F700EE11E0C0E0AD
:10102000D0E08DEE91E00E948D01892BC1F08DEE14
:1010300091E00E946B01813D09F045C08DEE91E089
:101040000E948D01892BD1F38DEE91E00E946B01FE
:101050008093E30181E08093E2010E94A10482EA8F
:1010600092E00E94B102892BB9F082EA92E00E94DC
:10107000C702823D89F482EA92E00E94B102892B84
:10108000D1F382EA92E00E94C7028093D70181E007
:101090008093D6010E94A104209719F20E94990121
:1010A000882309F4BECF0E940000BBCF9E3040F4DD
:1010B0002850310981E001C0880F2A95EAF742CF14
:1010C0002E503109F7CF9091E101911108C08A3A71
:1010D00031F681E08093E1011092E001C0CFE09110
:1010E000E001E83048F491E09E0F9093E001F0E0D9
:1010F000E852FE4F8083B3CF853521F50E948803E7
:1011000082E891E00E94940461E080E00E94310452
:1011100088EDE82E81E0F82EF701D1907F01FFE005
:10112000FD1530F041E060E38AE892E00E942F0371
:101130006D2D70E090E080E040E10E9446040E15C5
:101140001F0551F71092E1018ACF82E291E090935E
:10115000A3028093A2028091D4019091D501825A7A
:10116000924071F4E091B502F091B60290818091C5
:10117000B7028095892380831092D5011092D40103
:101180000895A1E21A2EAA1BBB1BFD010DC0AA1FC8
:10119000BB1FEE1FFF1FA217B307E407F50720F0E0
:1011A000A21BB30BE40BF50B661F771F881F991F5B
:1011B0001A9469F760957095809590959B01AC01A4
:1011C000BD01CF010895EE0FFF1F0590F491E02DB2
:1011D000099410E0C2E6D0E004C0FE010E94E308DA
:1011E0002196C336D107C9F7F894FFCF000000005D
:1011F000CF012F015C011C028D016B017F010000FA
:10120000000040042F01E902E8020000000055023E
:101210002F01E9025402B102C7023C02415F504B68
:101220003A003F3F00425F504B3A004B4559204542
:101230005843482043415547485421005761697439
:10124000696E6720666F722044482E2E0041545408
:1012500041434B45522041435449564500536E6922
:101260006666696E67206C696E65732E2E00416C30
:0E12700069636520456E6320446174613A0035
:107E0000112484B714BE81FFF0D085E080938100F7
:107E100082E08093C00088E18093C10086E0809377
:107E2000C20080E18093C4008EE0C9D0259A86E02C
:107E300020E33CEF91E0309385002093840096BBD3
:107E4000B09BFECF1D9AA8958150A9F7CC24DD24C4
:107E500088248394B5E0AB2EA1E19A2EF3E0BF2EE7
:107E6000A2D0813461F49FD0082FAFD0023811F036
:107E7000013811F484E001C083E08DD089C08234E0
:107E800011F484E103C0853419F485E0A6D080C0E4
:107E9000853579F488D0E82EFF2485D0082F10E0AE
:107EA000102F00270E291F29000F111F8ED06801E7
:107EB0006FC0863521F484E090D080E0DECF843638
:107EC00009F040C070D06FD0082F6DD080E0C81688
:107ED00080E7D80618F4F601B7BEE895C0E0D1E017
:107EE00062D089930C17E1F7F0E0CF16F0E7DF06D8
:107EF00018F0F601B7BEE89568D007B600FCFDCFD4
:107F0000A601A0E0B1E02C9130E011968C91119780
:107F100090E0982F8827822B932B1296FA010C0160
:107F200087BEE89511244E5F5F4FF1E0A038BF0790
:107F300051F7F601A7BEE89507B600FCFDCF97BE46
:107F4000E89526C08437B1F42ED02DD0F82E2BD052
:107F50003CD0F601EF2C8F010F5F1F4F84911BD097
:107F6000EA94F801C1F70894C11CD11CFA94CF0C13
:107F7000D11C0EC0853739F428D08EE10CD085E9AC
:107F80000AD08FE07ACF813511F488E018D01DD067
:107F900080E101D065CF982F8091C00085FFFCCF94
:107FA0009093C60008958091C00087FFFCCF809118
:107FB000C00084FD01C0A8958091C6000895E0E648
:107FC000F0E098E1908380830895EDDF803219F02E
:107FD00088E0F5DFFFCF84E1DECF1F93182FE3DFCA
:107FE0001150E9F7F2DF1F91089580E0E8DFEE27F6
:047FF000FF270994CA
:027FFE00040479
:00000001FF
