:020000040000FA
:100000000C945D000C9485000C9485000C94850084
:100010000C9485000C9485000C9485000C9485004C
:100020000C9485000C9485000C9485000C9485003C
:100030000C9485000C9485000C9485000C9485002C
:100040000C94FD030C9485000C946D040C944704EF
:100050000C9485000C9485000C9485000C9485000C
:100060000C9485000C94850000000008000201003B
:100070000003040700000000000000000000000072
:10008000250028002B0000000000240027002A0083
:10009000040404040404040402020202020203032E
:1000A0000303030301020408102040800102040836
:1000B00010200102040810209F0411241FBECFEF5E
:1000C000D8E0DEBFCDBF11E0A0E0B1E0E0E7F7E1AE
:1000D00002C005900D92A838B107D9F722E0A8E830
:1000E000B1E001C01D92AB38B207E1F710E0CDE5F9
:1000F000D0E004C02197FE010E94BE09CC35D10793
:10010000C9F70E94E9040C94B60B0C94000090E02F
:10011000FC01EC55FF4F249180579F4FFC018491C7
:10012000882399F090E0880F991FFC01EA57FF4F50
:10013000A591B491FC01E458FF4F859194918FB73C
:10014000F894EC91E22BEC938FBF089590E0FC01C2
:10015000E859FF4F2491FC01EC55FF4F3491FC010D
:10016000E057FF4FE491EE23C9F0222339F023300A
:1001700001F1A8F4213019F1223029F1F0E0EE0F5D
:10018000FF1FE458FF4FA591B4918FB7F894EC91FD
:10019000611126C030953E233C938FBF08952730D0
:1001A000A9F02830C9F0243049F7809180008F7D74
:1001B00003C0809180008F7780938000DFCF84B56B
:1001C0008F7784BDDBCF84B58F7DFBCF8091B0006E
:1001D0008F778093B000D2CF8091B0008F7DF9CF20
:1001E0003E2BDACF3FB7F8948091CE019091CF01AA
:1001F000A091D001B091D10126B5A89B05C02F3F99
:1002000019F00196A11DB11D3FBFBA2FA92F982F3C
:100210008827BC01CD01620F711D811D911D42E037
:10022000660F771F881F991F4A95D1F708952FB73A
:10023000F8946091CA017091CB018091CC019091AA
:10024000CD012FBF0895AF92BF92CF92DF92EF9270
:10025000FF920F931F93CF93DF936C017B018B0170
:10026000040F151FEB015E01AE18BF08C017D107C0
:1002700059F06991D601ED91FC910190F081E02D4A
:10028000C6010995892B79F7C501DF91CF911F919F
:100290000F91FF90EF90DF90CF90BF90AF900895B7
:1002A000FC01538D448D252F30E0842F90E0821B7C
:1002B000930B541710F0CF96089501970895FC0101
:1002C000918D828D981761F0A28DAE0FBF2FB11D59
:1002D0005D968C91928D9F5F9F73928F90E00895B1
:1002E0008FEF9FEF0895FC01918D828D981731F06B
:1002F000828DE80FF11D858D90E008958FEF9FEFBF
:100300000895FC01918D228D892F90E0805C9F4F94
:10031000821B91098F739927089582ED91E00E94C5
:10032000810121E0892B09F420E0822F089580E0EB
:1003300090E0892B29F00E948D0181110C9400001E
:100340000895FC01A48DA80FB92FB11DA35ABF4F6A
:100350002C91848D90E001968F739927848FA689C4
:10036000B7892C93A089B1898C91837080648C9318
:10037000938D848D981306C00288F389E02D8081C7
:100380008F7D80830895EF92FF920F931F93CF93F9
:10039000DF93EC0181E0888F9B8D8C8D98131AC0C0
:1003A000E889F989808185FF15C09FB7F894EE89A7
:1003B000FF896083E889F989808183708064808304
:1003C0009FBF81E090E0DF91CF911F910F91FF904F
:1003D000EF900895F62E0B8D10E00F5F1F4F0F73F7
:1003E0001127E02E8C8D8E110CC00FB607FCFACFB2
:1003F000E889F989808185FFF5CFCE010E94A101AE
:10040000F1CFEB8DEC0FFD2FF11DE35AFF4FF08282
:100410009FB7F8940B8FEA89FB8980818062CFCFE8
:10042000CF93DF93EC01888D8823B9F0AA89BB892B
:10043000E889F9898C9185FD03C0808186FD0DC016
:100440000FB607FCF7CF8C9185FFF2CF808185FF37
:10045000EDCFCE010E94A101E9CFDF91CF910895A8
:10046000089590E080E008958F929F92AF92BF929E
:100470000F931F93CF93DF93CDB7DEB7A1970FB63E
:10048000F894DEBF0FBECDBF19A2423008F44AE097
:100490008E010F5D1F4F842E912CB12CA12CA50134
:1004A00094010E946D09E62FB901CA01EA3044F5B2
:1004B000E05DD801EE938D01232B242B252B79F7BA
:1004C00090E080E0109769F0FD0101900020E9F7CD
:1004D0003197AF014A1B5B0BBD018FE692E00E9492
:1004E0002301A1960FB6F894DEBF0FBECDBFDF91FA
:1004F000CF911F910F91BF90AF909F908F900895D3
:10050000E95CD7CF009769F0FC0101900020E9F782
:100510003197AF01481B590BBC018FE692E00C9458
:10052000230190E080E00895CF93DF93EC0160E039
:100530008E810E94A60061E08E810E94A60060E08C
:100540008E810E94A6008BE891E00197F1F7DF9180
:10055000CF910895CF92DF92EF92FF920F931F9366
:10056000CF93DF936C017C0187E0E80EF11CD0E0B3
:10057000C0E0062F10E0B8010C2E02C075956795FB
:100580000A94E2F76170F70181917F010E94A60051
:100590002196C430D10579F7C601DF91CF911F9123
:1005A0000F91FF90EF90DF90CF900C949402CF9238
:1005B000DF92EF92FF920F931F93CF93DF93EC01A3
:1005C000F62E642F8C810E94A6008D818F3F19F03A
:1005D00060E00E94A6000F2D10E08F8584FF25C0EB
:1005E0006E0187E0C80ED11CF12CE12CB8010E2C55
:1005F00002C0759567950A94E2F76170F6018191E2
:100600006F010E94A600FFEFEF1AFF0A88E0E816CC
:10061000F10461F7CE01DF91CF911F910F91FF900F
:10062000EF90DF90CF900C949402B80184E0759520
:1006300067958A95E1F7CE010E94AA026F2DCE013F
:10064000DF91CF911F910F91FF90EF90DF90CF90AE
:100650000C94AA0240E0682F8FE692E00C94D70237
:1006600081E00E942A038BE39FE10197F1F708954F
:10067000CF93DF93823029F490917E02986090931B
:100680007E02809382021092830280E4809384022F
:1006900080E18093850280E58093860280917302D9
:1006A0000E948700809174028F3F11F00E948700A2
:1006B000809175020E948700CFE6D2E09E012F56FE
:1006C000324080917E0284FD0AC084E090E0219651
:1006D000281739073CF48E810E948700EFCF88E00D
:1006E00090E0F5CF8BE39DE00197F1F760E080911A
:1006F00073020E94A60060E0809175020E94A6002D
:10070000809174028F3F19F060E00E94A6008091F2
:100710007E0284FD34C063E08FE692E00E94AA026C
:10072000CBE4D6E4CE010197F1F763E08FE692E0E7
:100730000E94AA022197F1F763E08FE692E00E94FF
:10074000AA0283E592E00197F1F762E08FE692E07A
:100750000E94AA0280917E0280620E942A0384E0A5
:1007600080937F028CE00E942A030E94300382E083
:100770008093800286E0DF91CF910C942A038062FF
:100780000E942A038BE496E40197F1F780917E02A0
:1007900080620E942A0383E592E00197F1F780913D
:1007A0007E0280620E942A03D5CFE0918202E2306D
:1007B00040F4E150F0E0E159FD4F848980680C94E9
:1007C0002A03E1E0F7CF0F931F93CF93DF938C01C0
:1007D000EB010E943003C8010E9482020E94D503EF
:1007E000CE01DF91CF911F910F910C94820241E0D5
:1007F0000E94D70281E090E008951F920F920FB6F9
:100800000F9211242F933F938F939F93AF93BF9396
:100810008091CA019091CB01A091CC01B091CD0102
:100820003091C90123E0230F2D3758F50196A11D02
:10083000B11D2093C9018093CA019093CB01A0936D
:10084000CC01B093CD018091CE019091CF01A091C8
:10085000D001B091D1010196A11DB11D8093CE01AF
:100860009093CF01A093D001B093D101BF91AF91EC
:100870009F918F913F912F910F900FBE0F901F90DE
:10088000189526E8230F0296A11DB11DD2CF1F9205
:100890000F920FB60F9211242F933F934F935F93B4
:1008A0006F937F938F939F93AF93BF93EF93FF9338
:1008B00082ED91E00E94A101FF91EF91BF91AF9174
:1008C0009F918F917F916F915F914F913F912F9168
:1008D0000F900FBE0F901F9018951F920F920FB69A
:1008E0000F9211242F938F939F93EF93FF93E09197
:1008F000E201F091E3018081E091E801F091E901EA
:1009000082FD1BC090818091EB018F5F8F732091DE
:10091000EC01821741F0E091EB01F0E0EE52FE4F66
:10092000958F8093EB01FF91EF919F918F912F9184
:100930000F900FBE0F901F9018958081F4CFE2EDBD
:10094000F1E01382128288EE93E0A0E0B0E08483AD
:100950009583A683B7838EE091E09183808385ECB5
:1009600090E09587848784EC90E09787868780EC79
:1009700090E0918B808B81EC90E0938B828B82EC6A
:1009800090E0958B848B86EC90E0978B868B118E14
:10099000128E138E148EEFE6F2E01382128280E242
:1009A00091E0918380838CE084838FEF85838BE05B
:1009B000868385E0878384E0808783E0818782E087
:1009C00082871386148615861686178681E00C9416
:1009D0003803CF93DF93CDB7DEB72B970FB6F894DC
:1009E000DEBF0FBECDBF789484B5826084BD84B570
:1009F000816084BD85B5826085BD85B5816085BD1A
:100A000080916E00816080936E00109281008091D1
:100A10008100826080938100809181008160809359
:100A20008100809180008160809380008091B1007E
:100A300084608093B1008091B00081608093B000A9
:100A400080917A00846080937A0080917A0082603D
:100A500080937A0080917A00816080937A008091FF
:100A60007A00806880937A001092C100E091E201E0
:100A7000F091E30182E08083E091DE01F091DF01FB
:100A80001082E091E001F091E1018FEC80831092FF
:100A9000EA01E091E601F091E70186E08083E091D0
:100AA000E401F091E501808180618083E091E401BF
:100AB000F091E501808188608083E091E401F0910C
:100AC000E501808180688083E091E401F091E50197
:100AD00080818F7D808382E00E94380368E271E02C
:100AE00088E391E00E94E30380E480937C0080919E
:100AF0007A00806480937A0080917A0086FDFCCF32
:100B00006091780070917900072E000C880B990B8A
:100B1000611571058105910511F00E94D1080E94AF
:100B2000820828EF30E040E050E00E9404096E5F48
:100B30007F4F8F4F9F4F6093C2010E9417016093B8
:100B4000C3017093C4018093C5019093C6018E01C7
:100B50000F5F1F4F8BEFE82EF12CB4E02B2E312CC2
:100B6000E091C701F091C801E730F10520F5E554A7
:100B7000FA4F0C94BE09C2050C064A0678069C067C
:100B80005E0787070E9417014090C3015090C4017F
:100B90006090C5017090C6016419750986099709AE
:100BA000683E73408105910530F081E090E09093BC
:100BB000C8018093C7010E94F2004B015C0185E0EF
:100BC000482E512C612C712C0E94F2006819790971
:100BD0008A099B09683E734081059105A8F391E05D
:100BE000491A510861087108E8EE8E0EE3E09E1E76
:100BF000A11CB11C411451046104710429F780E067
:100C000090E0892B09F4ACCF0E948D01882309F470
:100C1000A4CF0E940000A1CF4091C20126E030E0A5
:100C2000E1E0F0E04423E9F0A42EB12C40FF0BC03A
:100C3000E29FC001E39F900DF29F900D1124B70138
:100C40000E94AA09FC01B594A7944A2D229FC001D5
:100C5000239F900D900D1124B7010E94AA099C01B9
:100C6000E1CFE093C1010E94300386E491E00E944D
:100C700082026091C10170E090E080E04AE00E9451
:100C800034020E94D5038EE491E00E94820282E049
:100C900090E08DCF82ED91E00E94810102970CF4EB
:100CA0008ACF82ED91E00E947301813D9105D9F4D4
:100CB00082ED91E00E945F0182ED91E00E945F0170
:100CC0008093C001E3E0F0E0F093C801E093C70136
:100CD0000E9417016093C3017093C4018093C50102
:100CE0009093C60168CF82ED91E00E945F0163CFCF
:100CF0000E9417014090C3015090C4016090C5014B
:100D00007090C6016419750986099709683E734099
:100D10008105910508F44FCF62ED82ED91E00E94CC
:100D2000C3016091C10182ED91E00E94C301309244
:100D3000C8012092C701CCCF4091C2012091C001CF
:100D400081E02B3F08F480E095E0899F200D11247D
:100D500030E0AA24A394B12C4423E9F0E42FF0E07E
:100D600040FF0BC0A29EC001A39E900DB29E900DAD
:100D70001124B7010E94AA095C01F595E7954E2F51
:100D8000229FC001239F900D900D1124B7010E9456
:100D9000AA099C01E1CFA092BF019A2D88278A2938
:100DA0009B299C01EAEA2E273E273A8329839C014E
:100DB000F5E52F273F273C832B839C014FE0242719
:100DC00034273E832D839093890180938801A8E87E
:100DD000B1E030E020E063E0962E822F692D0E9482
:100DE0009E09E92FF0E08D919D91EE0FFF1FE00F1E
:100DF000F11F4181742F770F5081652F661F662781
:100E0000661F762B7A87550F441F4427441F542BA7
:100E10005B874A855B85480F591F422753275183BB
:100E20004083782F7295769576957370692F660F4B
:100E3000660FD72ED62A9295969596959370880F21
:100E4000880FC92EC82A4C255D2511965C934E93B8
:100E50002F5F3F4F2531310509F0BFCF4AE0B80180
:100E6000C5010E94DA08F80101900020E9F7BF01EE
:100E7000601B710B90E080E00E94E90A5C01009722
:100E800029F0FC011082B8010E94AF0BB5018EE57C
:100E900091E00E94E303A114B10419F0C5010E947E
:100EA000600A0E9417016093C3017093C40180938C
:100EB000C5019093C60185E090E079CE0E941701AC
:100EC0004090C3015090C4016090C5017090C6016C
:100ED00064197509860997096C3D7540810591056E
:100EE00008F469CE6DE671E086E791E00E94E303C5
:100EF00086E090E05CCEE091BD01E830F8F491E04E
:100F00009E0F9093BD01F0E0EB54FE4F808382ED85
:100F100091E00E948101892B09F44DCE82ED91E090
:100F20000E945F019091BE019111E5CF8A3A79F755
:100F300091E09093BE011092BD01E9CF853509F093
:100F400092C04091B5015091B6012091B701309106
:100F5000B801A4EBB1E0FD01C90184279527792FE1
:100F60007295770F770F707C682F66956695272F9F
:100F7000262B682F6295660F660F607C892F8695F9
:100F80008695362F382B9291829184279527821B44
:100F9000930B782F7695692F679566276795572F5E
:100FA000562B9695879588278795492F482B88E853
:100FB00091E08E179F0781F65A8349833C832B83E8
:100FC0004091B9015091BA012091BB013091BC010F
:100FD000CA0182279327792F7295770F770F707C3C
:100FE000682F66956695272F262B682F6295660FCA
:100FF000660F607C892F86958695362F382B9E91BB
:101000008E9184279527821B930B782F7695692FD5
:10101000679566276795572F562B9695879588274E
:101020008795492F482BEA17FB0791F65E834D837E
:1010300038872F8319868091B4018F5F8093B40124
:101040000E94300382E891E00E9482026091B40124
:1010500070E090E080E04AE00E9434020E94D503F4
:10106000C8010E9482021092BE0151CF8F929F92BE
:10107000AF92BF92CF92DF92EF92FF92CF93DF9326
:10108000EC01688179818A819B81611571058105F7
:10109000910521F464E279ED8BE597E02DE133EFE2
:1010A00041E050E00E94040949015A019B01AC0152
:1010B000A7EAB1E40E9423096B017C01ACEEB4EF16
:1010C000A50194010E943109C60ED71EE81EF91E23
:1010D000F7FE06C081E0C81AD108E10880E8F80AE6
:1010E000C882D982EA82FB82C701B6019F77DF916D
:1010F000CF91FF90EF90DF90CF90BF90AF909F90F7
:101100008F9008958F929F92AF92BF92CF92DF926D
:10111000EF92FF92609100017091010180910201B4
:1011200090910301611571058105910521F464E237
:1011300079ED8BE597E02DE133EF41E050E00E943F
:10114000040949015A019B01AC01A7EAB1E40E94DC
:1011500023096B017C01ACEEB4EFA50194010E9460
:101160003109C60ED71EE81EF91EF7FE06C081E043
:10117000C81AD108E10880E8F80AC0920001D092AC
:101180000101E0920201F0920301C701B6019F77CD
:10119000FF90EF90DF90CF90BF90AF909F908F9097
:1011A0000895609300017093010180930201909370
:1011B00003010895BB27FB015527AA27880F991F14
:1011C000AA1FA41710F0A41B83955051B9F7A05D76
:1011D000AA3308F0A95DA193009779F7B111B193F3
:1011E0001192CB010C94F408DC01FC01672F719182
:1011F0007723E1F7329704C07C916D9370836291FD
:10120000AE17BF07C8F30895052E97FB1EF4009490
:101210000E941B0957FD07D00E946D0907FC03D0EF
:101220004EF40C941B0950954095309521953F4FF5
:101230004F4F5F4F089590958095709561957F4FC2
:101240008F4F9F4F08950E948F09A59F900DB49FC7
:10125000900DA49F800D911D11240895B7FF0C944B
:1012600023090E942309821B930B08952F923F921A
:101270004F925F926F927F928F929F92AF92BF92A6
:10128000CF92DF92EF92FF920F931F93CF93DF9352
:10129000CDB7DEB7CA1BDB0B0FB6F894DEBF0FBEAF
:1012A000CDBF09942A88398848885F846E847D84FC
:1012B0008C849B84AA84B984C884DF80EE80FD80FE
:1012C0000C811B81AA81B981CE0FD11D0FB6F89474
:1012D000DEBF0FBECDBFED010895A1E21A2EAA1BFD
:1012E000BB1BFD010DC0AA1FBB1FEE1FFF1FA217D6
:1012F000B307E407F50720F0A21BB30BE40BF50BD3
:10130000661F771F881F991F1A9469F7609570955B
:10131000809590959B01AC01BD01CF010895A29FDE
:10132000B001B39FC001A39F700D811D1124911DB9
:10133000B29F700D811D1124911D0895991B79E0B4
:1013400004C0991F961708F0961B881F7A95C9F755
:1013500080950895AA1BBB1B51E107C0AA1FBB1FA4
:10136000A617B70710F0A61BB70B881F991F5A9531
:10137000A9F780959095BC01CD010895EE0FFF1F50
:101380000590F491E02D09940F931F93CF93DF9371
:101390008230910510F482E090E0E0918902F091B2
:1013A0008A0230E020E0B0E0A0E0309799F4211507
:1013B000310509F44AC0281B390B24303105D8F512
:1013C0008A819B816115710589F1FB019383828379
:1013D000FE0111C0408151810281138148175907D4
:1013E000E0F04817590799F4109761F012960C93A2
:1013F000129713961C933296CF01DF91CF911F91D4
:101400000F9108950093890210938A02F4CF211559
:10141000310551F04217530738F0A901DB019A0159
:10142000BD01DF01F801C1CFEF01F9CF90938A022E
:1014300080938902CDCFFE01E20FF31F8193919338
:101440002250310939832883D7CF209187023091E8
:101450008802232B41F4209106013091070130933B
:101460008802209387022091040130910501211503
:10147000310541F42DB73EB7409108015091090163
:10148000241B350BE0918702F0918802E217F307E5
:10149000A0F42E1B3F0B2817390778F0AC014E5FE4
:1014A0005F4F2417350748F04E0F5F1F5093880297
:1014B00040938702819391939FCFF0E0E0E09CCF2F
:1014C000CF93DF930097E9F0FC01329713821282E9
:1014D000A0918902B0918A02ED0130E020E01097DE
:1014E000A1F420813181820F931F209187023091D6
:1014F00088022817390709F061C0F0938802E09349
:101500008702DF91CF910895EA01CE17DF07E8F552
:101510004A815B819E0141155105B1F7E901FB83C9
:10152000EA8349915991C40FD51FEC17FD0761F467
:10153000808191810296840F951FE90199838883A8
:10154000828193819B838A83F0E0E0E012968D9103
:101550009C9113970097B9F52D913C911197CD016E
:101560000296820F931F20918702309188022817DC
:10157000390739F6309751F510928A021092890294
:10158000B0938802A0938702BCCFD383C2834081EB
:101590005181840F951FC817D90761F44E5F5F4FC3
:1015A00088819981480F591F518340838A819B818B
:1015B000938382832115310509F0B0CFF0938A021D
:1015C000E09389029ECFFD01DC01C0CF138212821D
:1015D000D7CFB0E0A0E0EFEEFAE00C9438098C0130
:1015E000009751F4CB010E94C4098C01C801CDB70A
:1015F000DEB7E0E10C945409FC01E60FF71F9C01F3
:1016000022503109E217F30708F49DC0D901CD91AA
:10161000DC911197C617D70798F0C530D10530F384
:10162000CE0104978617970708F3C61BD70B22979E
:10163000C193D1936D937C93CF010E94600AD6CF62
:101640005B01AC1ABD0A4C018C0E9D1EA091890253
:10165000B0918A02512C412CF12CE12C109731F5DC
:1016600080918702909188028815990509F05CC0E5
:101670004616570608F058C0809104019091050164
:10168000009741F48DB79EB7409108015091090130
:10169000841B950BE817F90708F055C0F0938802F2
:1016A000E0938702F90171836083A0CF8D919C91B3
:1016B000119712966C90129713967C901397A81519
:1016C000B90559F56C0142E0C40ED11CCA14DB0403
:1016D00020F1AC014A195B09DA011296159780F0E6
:1016E0006282738251834083D9016D937C93E114AC
:1016F000F10471F0D7011396FC93EE93129776CF15
:1017000022968C0F9D1FF90191838083F301EFCF07
:10171000F0938A02E093890269CF4816590608F4CB
:101720002C017D01D3019ACFCB010E94C4097C0119
:10173000009749F0AE01B8010E94A60BC8010E94B3
:10174000600A870153CF10E000E050CFFB01DC01BD
:1017500002C001900D9241505040D8F70895FB010E
:10176000DC0101900D920020E1F70895F894FFCF7D
:101770000100000000008B02800000000000C30197
:1017800023015001100281015F017301000000007C
:10179000F70323013102300220537065636B2D4C37
:1017A0006967687420333200202053454355524501
:1017B0002055415254004D7920504B3A200057613A
:1017C0006974696E6720416C6963652E2E005368E9
:1017D00061726564205365637265743A0052656195
:1017E00064792E2E2E00534543555245204C494EC8
:0817F0004B004D73672023003C
:107E0000112484B714BE81FFF0D085E080938100F7
:107E100082E08093C00088E18093C10086E0809377
:107E2000C20080E18093C4008EE0C9D0259A86E02C
:107E300020E33CEF91E0309385002093840096BBD3
:107E4000B09BFECF1D9AA8958150A9F7CC24DD24C4
:107E500088248394B5E0AB2EA1E19A2EF3E0BF2EE7
:107E6000A2D0813461F49FD0082FAFD0023811F036
:107E7000013811F484E001C083E08DD089C08234E0
:107E800011F484E103C0853419F485E0A6D080C0E4
:107E9000853579F488D0E82EFF2485D0082F10E0AE
:107EA000102F00270E291F29000F111F8ED06801E7
:107EB0006FC0863521F484E090D080E0DECF843638
:107EC00009F040C070D06FD0082F6DD080E0C81688
:107ED00080E7D80618F4F601B7BEE895C0E0D1E017
:107EE00062D089930C17E1F7F0E0CF16F0E7DF06D8
:107EF00018F0F601B7BEE89568D007B600FCFDCFD4
:107F0000A601A0E0B1E02C9130E011968C91119780
:107F100090E0982F8827822B932B1296FA010C0160
:107F200087BEE89511244E5F5F4FF1E0A038BF0790
:107F300051F7F601A7BEE89507B600FCFDCF97BE46
:107F4000E89526C08437B1F42ED02DD0F82E2BD052
:107F50003CD0F601EF2C8F010F5F1F4F84911BD097
:107F6000EA94F801C1F70894C11CD11CFA94CF0C13
:107F7000D11C0EC0853739F428D08EE10CD085E9AC
:107F80000AD08FE07ACF813511F488E018D01DD067
:107F900080E101D065CF982F8091C00085FFFCCF94
:107FA0009093C60008958091C00087FFFCCF809118
:107FB000C00084FD01C0A8958091C6000895E0E648
:107FC000F0E098E1908380830895EDDF803219F02E
:107FD00088E0F5DFFFCF84E1DECF1F93182FE3DFCA
:107FE0001150E9F7F2DF1F91089580E0E8DFEE27F6
:047FF000FF270994CA
:027FFE00040479
:00000001FF
